{
  "contractName": "ZombieFactory",
  "abi": [
    {
      "anonymous": false,
      "inputs": [
        {
          "indexed": false,
          "internalType": "uint256",
          "name": "zombieId",
          "type": "uint256"
        },
        {
          "indexed": false,
          "internalType": "string",
          "name": "name",
          "type": "string"
        },
        {
          "indexed": false,
          "internalType": "uint256",
          "name": "dna",
          "type": "uint256"
        }
      ],
      "name": "NewZombie",
      "type": "event"
    },
    {
      "anonymous": false,
      "inputs": [
        {
          "indexed": true,
          "internalType": "address",
          "name": "previousOwner",
          "type": "address"
        },
        {
          "indexed": true,
          "internalType": "address",
          "name": "newOwner",
          "type": "address"
        }
      ],
      "name": "OwnershipTransferred",
      "type": "event"
    },
    {
      "constant": true,
      "inputs": [],
      "name": "isOwner",
      "outputs": [
        {
          "internalType": "bool",
          "name": "",
          "type": "bool"
        }
      ],
      "payable": false,
      "stateMutability": "view",
      "type": "function"
    },
    {
      "constant": true,
      "inputs": [],
      "name": "owner",
      "outputs": [
        {
          "internalType": "address payable",
          "name": "",
          "type": "address"
        }
      ],
      "payable": false,
      "stateMutability": "view",
      "type": "function"
    },
    {
      "constant": false,
      "inputs": [],
      "name": "renounceOwnership",
      "outputs": [],
      "payable": false,
      "stateMutability": "nonpayable",
      "type": "function"
    },
    {
      "constant": false,
      "inputs": [
        {
          "internalType": "address payable",
          "name": "newOwner",
          "type": "address"
        }
      ],
      "name": "transferOwnership",
      "outputs": [],
      "payable": false,
      "stateMutability": "nonpayable",
      "type": "function"
    },
    {
      "constant": true,
      "inputs": [
        {
          "internalType": "uint256",
          "name": "",
          "type": "uint256"
        }
      ],
      "name": "zombieToOwner",
      "outputs": [
        {
          "internalType": "address",
          "name": "",
          "type": "address"
        }
      ],
      "payable": false,
      "stateMutability": "view",
      "type": "function"
    },
    {
      "constant": true,
      "inputs": [
        {
          "internalType": "uint256",
          "name": "",
          "type": "uint256"
        }
      ],
      "name": "zombies",
      "outputs": [
        {
          "internalType": "string",
          "name": "name",
          "type": "string"
        },
        {
          "internalType": "uint256",
          "name": "dna",
          "type": "uint256"
        },
        {
          "internalType": "uint32",
          "name": "level",
          "type": "uint32"
        },
        {
          "internalType": "uint32",
          "name": "readyTime",
          "type": "uint32"
        },
        {
          "internalType": "uint16",
          "name": "winCount",
          "type": "uint16"
        },
        {
          "internalType": "uint16",
          "name": "lossCount",
          "type": "uint16"
        }
      ],
      "payable": false,
      "stateMutability": "view",
      "type": "function"
    },
    {
      "constant": false,
      "inputs": [
        {
          "internalType": "string",
          "name": "_name",
          "type": "string"
        }
      ],
      "name": "createRandomZombie",
      "outputs": [],
      "payable": false,
      "stateMutability": "nonpayable",
      "type": "function"
    },
    {
      "constant": false,
      "inputs": [
        {
          "internalType": "string",
          "name": "_name",
          "type": "string"
        }
      ],
      "name": "createRandomZombieFree",
      "outputs": [],
      "payable": false,
      "stateMutability": "nonpayable",
      "type": "function"
    }
  ],
  "bytecode": "0x60806040526010600155600154600a0a600255603c600355336000806101000a81548173ffffffffffffffffffffffffffffffffffffffff021916908373ffffffffffffffffffffffffffffffffffffffff1602179055506000809054906101000a900473ffffffffffffffffffffffffffffffffffffffff1673ffffffffffffffffffffffffffffffffffffffff16600073ffffffffffffffffffffffffffffffffffffffff167f8be0079c531659141344cd1fd0a4f28419497f9722a3daafe3b4186f6b6457e060405160405180910390a3610cc8806100e26000396000f3fe608060405234801561001057600080fd5b50600436106100885760003560e01c80637bff0a011161005b5780637bff0a01146102b25780638da5cb5b1461036d5780638f32d59b146103b7578063f2fde38b146103d957610088565b80632052465e1461008d578063528b7b8f1461017f57806367afd96d146101ed578063715018a6146102a8575b600080fd5b6100b9600480360360208110156100a357600080fd5b810190808035906020019092919050505061041d565b60405180806020018781526020018663ffffffff1663ffffffff1681526020018563ffffffff1663ffffffff1681526020018461ffff1661ffff1681526020018361ffff1661ffff168152602001828103825288818151815260200191508051906020019080838360005b8381101561013f578082015181840152602081019050610124565b50505050905090810190601f16801561016c5780820380516001836020036101000a031916815260200191505b5097505050505050505060405180910390f35b6101ab6004803603602081101561019557600080fd5b810190808035906020019092919050505061053a565b604051808273ffffffffffffffffffffffffffffffffffffffff1673ffffffffffffffffffffffffffffffffffffffff16815260200191505060405180910390f35b6102a66004803603602081101561020357600080fd5b810190808035906020019064010000000081111561022057600080fd5b82018360208201111561023257600080fd5b8035906020019184600183028401116401000000008311171561025457600080fd5b91908080601f016020809104026020016040519081016040528093929190818152602001838380828437600081840152601f19601f82011690508083019250505050505050919291929050505061056d565b005b6102b0610597565b005b61036b600480360360208110156102c857600080fd5b81019080803590602001906401000000008111156102e557600080fd5b8201836020820111156102f757600080fd5b8035906020019184600183028401116401000000008311171561031957600080fd5b91908080601f016020809104026020016040519081016040528093929190818152602001838380828437600081840152601f19601f820116905080830192505050505050509192919290505050610667565b005b6103756106dd565b604051808273ffffffffffffffffffffffffffffffffffffffff1673ffffffffffffffffffffffffffffffffffffffff16815260200191505060405180910390f35b6103bf610706565b604051808215151515815260200191505060405180910390f35b61041b600480360360208110156103ef57600080fd5b81019080803573ffffffffffffffffffffffffffffffffffffffff16906020019092919050505061075d565b005b6004818154811061042a57fe5b9060005260206000209060030201600091509050806000018054600181600116156101000203166002900480601f0160208091040260200160405190810160405280929190818152602001828054600181600116156101000203166002900480156104d65780601f106104ab576101008083540402835291602001916104d6565b820191906000526020600020905b8154815290600101906020018083116104b957829003601f168201915b5050505050908060010154908060020160009054906101000a900463ffffffff16908060020160049054906101000a900463ffffffff16908060020160089054906101000a900461ffff169080600201600a9054906101000a900461ffff16905086565b60056020528060005260406000206000915054906101000a900473ffffffffffffffffffffffffffffffffffffffff1681565b60006105788261077a565b90506064818161058457fe5b06810390506105938282610808565b5050565b61059f610706565b6105a857600080fd5b600073ffffffffffffffffffffffffffffffffffffffff166000809054906101000a900473ffffffffffffffffffffffffffffffffffffffff1673ffffffffffffffffffffffffffffffffffffffff167f8be0079c531659141344cd1fd0a4f28419497f9722a3daafe3b4186f6b6457e060405160405180910390a360008060006101000a81548173ffffffffffffffffffffffffffffffffffffffff021916908373ffffffffffffffffffffffffffffffffffffffff160217905550565b6000600660003373ffffffffffffffffffffffffffffffffffffffff1673ffffffffffffffffffffffffffffffffffffffff16815260200190815260200160002054146106b357600080fd5b60006106be8261077a565b9050606481816106ca57fe5b06810390506106d98282610808565b5050565b60008060009054906101000a900473ffffffffffffffffffffffffffffffffffffffff16905090565b60008060009054906101000a900473ffffffffffffffffffffffffffffffffffffffff1673ffffffffffffffffffffffffffffffffffffffff163373ffffffffffffffffffffffffffffffffffffffff1614905090565b610765610706565b61076e57600080fd5b61077781610ada565b50565b600080826040516020018082805190602001908083835b602083106107b45780518252602082019150602081019050602083039250610791565b6001836020036101000a0380198251168184511680821785525050505050509050019150506040516020818303038152906040528051906020012060001c905060025481816107ff57fe5b06915050919050565b6000600160046040518060c00160405280868152602001858152602001600163ffffffff168152602001600354420163ffffffff168152602001600061ffff168152602001600061ffff1681525090806001815401808255809150509060018203906000526020600020906003020160009091929091909150600082015181600001908051906020019061089d929190610bee565b506020820151816001015560408201518160020160006101000a81548163ffffffff021916908363ffffffff16021790555060608201518160020160046101000a81548163ffffffff021916908363ffffffff16021790555060808201518160020160086101000a81548161ffff021916908361ffff16021790555060a082015181600201600a6101000a81548161ffff021916908361ffff1602179055505050039050336005600083815260200190815260200160002060006101000a81548173ffffffffffffffffffffffffffffffffffffffff021916908373ffffffffffffffffffffffffffffffffffffffff1602179055506109e66001600660003373ffffffffffffffffffffffffffffffffffffffff1673ffffffffffffffffffffffffffffffffffffffff16815260200190815260200160002054610bd290919063ffffffff16565b600660003373ffffffffffffffffffffffffffffffffffffffff1673ffffffffffffffffffffffffffffffffffffffff168152602001908152602001600020819055507f88f026aacbbecc90c18411df4b1185fd8d9be2470f1962f192bf84a27d0704b78184846040518084815260200180602001838152602001828103825284818151815260200191508051906020019080838360005b83811015610a99578082015181840152602081019050610a7e565b50505050905090810190601f168015610ac65780820380516001836020036101000a031916815260200191505b5094505050505060405180910390a1505050565b600073ffffffffffffffffffffffffffffffffffffffff168173ffffffffffffffffffffffffffffffffffffffff161415610b1457600080fd5b8073ffffffffffffffffffffffffffffffffffffffff166000809054906101000a900473ffffffffffffffffffffffffffffffffffffffff1673ffffffffffffffffffffffffffffffffffffffff167f8be0079c531659141344cd1fd0a4f28419497f9722a3daafe3b4186f6b6457e060405160405180910390a3806000806101000a81548173ffffffffffffffffffffffffffffffffffffffff021916908373ffffffffffffffffffffffffffffffffffffffff16021790555050565b600080828401905083811015610be457fe5b8091505092915050565b828054600181600116156101000203166002900490600052602060002090601f016020900481019282601f10610c2f57805160ff1916838001178555610c5d565b82800160010185558215610c5d579182015b82811115610c5c578251825591602001919060010190610c41565b5b509050610c6a9190610c6e565b5090565b610c9091905b80821115610c8c576000816000905550600101610c74565b5090565b9056fea265627a7a72315820f2d463e1457ebbbd0fa82185cc3b2a0f726f45d66a7e44faea382080944ece8664736f6c63430005100032",
  "source": "pragma solidity ^0.5.0;\n\nimport \"./ownable.sol\";\nimport \"./safemath.sol\";\n\ncontract ZombieFactory is Ownable {\n    using SafeMath for uint256;\n    using SafeMath32 for uint32;\n    using SafeMath16 for uint16;\n\n    event NewZombie(uint256 zombieId, string name, uint256 dna);\n\n    uint256 dnaDigits = 16;\n    uint256 dnaModulus = 10**dnaDigits;\n    // uint256 cooldownTime = 1 days;\n    uint256 cooldownTime = 1 minutes;\n\n    struct Zombie {\n        string name;\n        uint256 dna;\n        uint32 level;\n        uint32 readyTime;\n        uint16 winCount;\n        uint16 lossCount;\n    }\n\n    Zombie[] public zombies;\n\n    mapping(uint256 => address) public zombieToOwner;\n    mapping(address => uint256) ownerZombieCount;\n\n    function _createZombie(string memory _name, uint256 _dna) internal {\n        uint256 id = zombies.push(\n            Zombie(_name, _dna, 1, uint32(now + cooldownTime), 0, 0)\n        ) - 1;\n        zombieToOwner[id] = msg.sender;\n        ownerZombieCount[msg.sender] = ownerZombieCount[msg.sender].add(1);\n        emit NewZombie(id, _name, _dna);\n    }\n\n    function _generateRandomDna(string memory _str)\n        private\n        view\n        returns (uint256)\n    {\n        uint256 rand = uint256(keccak256(abi.encodePacked(_str)));\n        return rand % dnaModulus;\n    }\n\n    function createRandomZombie(string memory _name) public {\n        require(ownerZombieCount[msg.sender] == 0);\n        uint256 randDna = _generateRandomDna(_name);\n        randDna = randDna - (randDna % 100);\n        _createZombie(_name, randDna);\n    }\n\n    function createRandomZombieFree(string memory _name) public {\n        // require(ownerZombieCount[msg.sender] == 0);\n        uint256 randDna = _generateRandomDna(_name);\n        randDna = randDna - (randDna % 100);\n        _createZombie(_name, randDna);\n    }\n}\n",
  "sourcePath": "/home/mahdad/Projects/crypto/zombies-game-smart-contract/contracts/zombiefactory.sol",
  "compiler": {
    "name": "solc",
    "version": "0.5.16+commit.9c3226ce.Emscripten.clang"
  },
  "schemaVersion": "3.4.1",
  "updatedAt": "2021-07-11T16:24:40.121Z",
  "devdoc": {
    "methods": {
      "isOwner()": {
        "return": "true if `msg.sender` is the owner of the contract."
      },
      "owner()": {
        "return": "the address of the owner."
      },
      "renounceOwnership()": {
        "details": "Allows the current owner to relinquish control of the contract."
      },
      "transferOwnership(address)": {
        "details": "Allows the current owner to transfer control of the contract to a newOwner.",
        "params": {
          "newOwner": "The address to transfer ownership to."
        }
      }
    }
  },
  "userdoc": {
    "methods": {
      "renounceOwnership()": {
        "notice": "Renouncing to ownership will leave the contract without an owner. It will not be possible to call the functions with the `onlyOwner` modifier anymore."
      }
    }
  }
}