{
  "contractName": "ZombieAttack",
  "abi": [
    {
      "anonymous": false,
      "inputs": [
        {
          "indexed": false,
          "internalType": "uint256",
          "name": "zombieId",
          "type": "uint256"
        },
        {
          "indexed": false,
          "internalType": "string",
          "name": "name",
          "type": "string"
        },
        {
          "indexed": false,
          "internalType": "uint256",
          "name": "dna",
          "type": "uint256"
        }
      ],
      "name": "NewZombie",
      "type": "event"
    },
    {
      "anonymous": false,
      "inputs": [
        {
          "indexed": true,
          "internalType": "address",
          "name": "previousOwner",
          "type": "address"
        },
        {
          "indexed": true,
          "internalType": "address",
          "name": "newOwner",
          "type": "address"
        }
      ],
      "name": "OwnershipTransferred",
      "type": "event"
    },
    {
      "constant": false,
      "inputs": [
        {
          "internalType": "uint256",
          "name": "_zombieId",
          "type": "uint256"
        },
        {
          "internalType": "uint256",
          "name": "_newDna",
          "type": "uint256"
        }
      ],
      "name": "changeDna",
      "outputs": [],
      "payable": false,
      "stateMutability": "nonpayable",
      "type": "function"
    },
    {
      "constant": false,
      "inputs": [
        {
          "internalType": "uint256",
          "name": "_zombieId",
          "type": "uint256"
        },
        {
          "internalType": "string",
          "name": "_newName",
          "type": "string"
        }
      ],
      "name": "changeName",
      "outputs": [],
      "payable": false,
      "stateMutability": "nonpayable",
      "type": "function"
    },
    {
      "constant": false,
      "inputs": [
        {
          "internalType": "string",
          "name": "_name",
          "type": "string"
        }
      ],
      "name": "createRandomZombie",
      "outputs": [],
      "payable": false,
      "stateMutability": "nonpayable",
      "type": "function"
    },
    {
      "constant": false,
      "inputs": [
        {
          "internalType": "string",
          "name": "_name",
          "type": "string"
        }
      ],
      "name": "createRandomZombieFree",
      "outputs": [],
      "payable": false,
      "stateMutability": "nonpayable",
      "type": "function"
    },
    {
      "constant": false,
      "inputs": [
        {
          "internalType": "uint256",
          "name": "_zombieId",
          "type": "uint256"
        },
        {
          "internalType": "uint256",
          "name": "_kittyId",
          "type": "uint256"
        }
      ],
      "name": "feedOnKitty",
      "outputs": [],
      "payable": false,
      "stateMutability": "nonpayable",
      "type": "function"
    },
    {
      "constant": true,
      "inputs": [
        {
          "internalType": "address",
          "name": "_owner",
          "type": "address"
        }
      ],
      "name": "getZombiesByOwner",
      "outputs": [
        {
          "internalType": "uint256[]",
          "name": "",
          "type": "uint256[]"
        }
      ],
      "payable": false,
      "stateMutability": "view",
      "type": "function"
    },
    {
      "constant": true,
      "inputs": [],
      "name": "isOwner",
      "outputs": [
        {
          "internalType": "bool",
          "name": "",
          "type": "bool"
        }
      ],
      "payable": false,
      "stateMutability": "view",
      "type": "function"
    },
    {
      "constant": false,
      "inputs": [
        {
          "internalType": "uint256",
          "name": "_zombieId",
          "type": "uint256"
        }
      ],
      "name": "levelUp",
      "outputs": [],
      "payable": true,
      "stateMutability": "payable",
      "type": "function"
    },
    {
      "constant": true,
      "inputs": [],
      "name": "owner",
      "outputs": [
        {
          "internalType": "address payable",
          "name": "",
          "type": "address"
        }
      ],
      "payable": false,
      "stateMutability": "view",
      "type": "function"
    },
    {
      "constant": false,
      "inputs": [],
      "name": "renounceOwnership",
      "outputs": [],
      "payable": false,
      "stateMutability": "nonpayable",
      "type": "function"
    },
    {
      "constant": false,
      "inputs": [
        {
          "internalType": "address",
          "name": "_address",
          "type": "address"
        }
      ],
      "name": "setKittyContractAddress",
      "outputs": [],
      "payable": false,
      "stateMutability": "nonpayable",
      "type": "function"
    },
    {
      "constant": false,
      "inputs": [
        {
          "internalType": "uint256",
          "name": "_fee",
          "type": "uint256"
        }
      ],
      "name": "setLevelUpFee",
      "outputs": [],
      "payable": false,
      "stateMutability": "nonpayable",
      "type": "function"
    },
    {
      "constant": false,
      "inputs": [
        {
          "internalType": "address payable",
          "name": "newOwner",
          "type": "address"
        }
      ],
      "name": "transferOwnership",
      "outputs": [],
      "payable": false,
      "stateMutability": "nonpayable",
      "type": "function"
    },
    {
      "constant": false,
      "inputs": [],
      "name": "withdraw",
      "outputs": [],
      "payable": false,
      "stateMutability": "nonpayable",
      "type": "function"
    },
    {
      "constant": true,
      "inputs": [
        {
          "internalType": "uint256",
          "name": "",
          "type": "uint256"
        }
      ],
      "name": "zombieToOwner",
      "outputs": [
        {
          "internalType": "address",
          "name": "",
          "type": "address"
        }
      ],
      "payable": false,
      "stateMutability": "view",
      "type": "function"
    },
    {
      "constant": true,
      "inputs": [
        {
          "internalType": "uint256",
          "name": "",
          "type": "uint256"
        }
      ],
      "name": "zombies",
      "outputs": [
        {
          "internalType": "string",
          "name": "name",
          "type": "string"
        },
        {
          "internalType": "uint256",
          "name": "dna",
          "type": "uint256"
        },
        {
          "internalType": "uint32",
          "name": "level",
          "type": "uint32"
        },
        {
          "internalType": "uint32",
          "name": "readyTime",
          "type": "uint32"
        },
        {
          "internalType": "uint16",
          "name": "winCount",
          "type": "uint16"
        },
        {
          "internalType": "uint16",
          "name": "lossCount",
          "type": "uint16"
        }
      ],
      "payable": false,
      "stateMutability": "view",
      "type": "function"
    },
    {
      "constant": false,
      "inputs": [
        {
          "internalType": "uint256",
          "name": "_zombieId",
          "type": "uint256"
        },
        {
          "internalType": "uint256",
          "name": "_targetId",
          "type": "uint256"
        }
      ],
      "name": "attack",
      "outputs": [],
      "payable": false,
      "stateMutability": "nonpayable",
      "type": "function"
    }
  ],
  "bytecode": "0x60806040526010600155600154600a0a600255603c60035566038d7ea4c6800060085560006009556046600a55336000806101000a81548173ffffffffffffffffffffffffffffffffffffffff021916908373ffffffffffffffffffffffffffffffffffffffff1602179055506000809054906101000a900473ffffffffffffffffffffffffffffffffffffffff1673ffffffffffffffffffffffffffffffffffffffff16600073ffffffffffffffffffffffffffffffffffffffff167f8be0079c531659141344cd1fd0a4f28419497f9722a3daafe3b4186f6b6457e060405160405180910390a3611cf1806100f76000396000f3fe6080604052600436106100fe5760003560e01c806367afd96d116100955780638f32d59b116100645780638f32d59b14610641578063c39cbef114610670578063ccf670f814610700578063e1fa76381461073b578063f2fde38b14610780576100fe565b806367afd96d14610443578063715018a61461050b5780637bff0a01146105225780638da5cb5b146105ea576100fe565b80634412e104116100d15780634412e1041461028c578063528b7b8f146103325780635f4623f1146103ad5780635faf2880146103fe576100fe565b80630ce90ec21461010357806317a7f4cc146101315780632052465e146101765780633ccfd60b14610275575b600080fd5b61012f6004803603602081101561011957600080fd5b81019080803590602001909291905050506107d1565b005b34801561013d57600080fd5b506101746004803603604081101561015457600080fd5b8101908080359060200190929190803590602001909291905050506108d3565b005b34801561018257600080fd5b506101af6004803603602081101561019957600080fd5b8101908080359060200190929190505050610a5e565b60405180806020018781526020018663ffffffff1663ffffffff1681526020018563ffffffff1663ffffffff1681526020018461ffff1661ffff1681526020018361ffff1661ffff168152602001828103825288818151815260200191508051906020019080838360005b8381101561023557808201518184015260208101905061021a565b50505050905090810190601f1680156102625780820380516001836020036101000a031916815260200191505b5097505050505050505060405180910390f35b34801561028157600080fd5b5061028a610b7b565b005b34801561029857600080fd5b506102db600480360360208110156102af57600080fd5b81019080803573ffffffffffffffffffffffffffffffffffffffff169060200190929190505050610be2565b6040518080602001828103825283818151815260200191508051906020019060200280838360005b8381101561031e578082015181840152602081019050610303565b505050509050019250505060405180910390f35b34801561033e57600080fd5b5061036b6004803603602081101561035557600080fd5b8101908080359060200190929190505050610d0f565b604051808273ffffffffffffffffffffffffffffffffffffffff1673ffffffffffffffffffffffffffffffffffffffff16815260200191505060405180910390f35b3480156103b957600080fd5b506103fc600480360360208110156103d057600080fd5b81019080803573ffffffffffffffffffffffffffffffffffffffff169060200190929190505050610d42565b005b34801561040a57600080fd5b506104416004803603604081101561042157600080fd5b810190808035906020019092919080359060200190929190505050610d97565b005b34801561044f57600080fd5b506105096004803603602081101561046657600080fd5b810190808035906020019064010000000081111561048357600080fd5b82018360208201111561049557600080fd5b803590602001918460018302840111640100000000831117156104b757600080fd5b91908080601f016020809104026020016040519081016040528093929190818152602001838380828437600081840152601f19601f820116905080830192505050505050509192919290505050610e71565b005b34801561051757600080fd5b50610520610e9b565b005b34801561052e57600080fd5b506105e86004803603602081101561054557600080fd5b810190808035906020019064010000000081111561056257600080fd5b82018360208201111561057457600080fd5b8035906020019184600183028401116401000000008311171561059657600080fd5b91908080601f016020809104026020016040519081016040528093929190818152602001838380828437600081840152601f19601f820116905080830192505050505050509192919290505050610f6b565b005b3480156105f657600080fd5b506105ff610fe1565b604051808273ffffffffffffffffffffffffffffffffffffffff1673ffffffffffffffffffffffffffffffffffffffff16815260200191505060405180910390f35b34801561064d57600080fd5b5061065661100a565b604051808215151515815260200191505060405180910390f35b34801561067c57600080fd5b506106fe6004803603604081101561069357600080fd5b8101908080359060200190929190803590602001906401000000008111156106ba57600080fd5b8201836020820111156106cc57600080fd5b803590602001918460018302840111640100000000831117156106ee57600080fd5b9091929391929390505050611061565b005b34801561070c57600080fd5b506107396004803603602081101561072357600080fd5b8101908080359060200190929190505050611147565b005b34801561074757600080fd5b5061077e6004803603604081101561075e57600080fd5b810190808035906020019092919080359060200190929190505050611162565b005b34801561078c57600080fd5b506107cf600480360360208110156107a357600080fd5b81019080803573ffffffffffffffffffffffffffffffffffffffff1690602001909291905050506113ee565b005b806005600082815260200190815260200160002060009054906101000a900473ffffffffffffffffffffffffffffffffffffffff1673ffffffffffffffffffffffffffffffffffffffff163373ffffffffffffffffffffffffffffffffffffffff161461083d57600080fd5b600854341461084b57600080fd5b61089360016004848154811061085d57fe5b906000526020600020906003020160020160009054906101000a900463ffffffff1663ffffffff1661140b90919063ffffffff16565b600483815481106108a057fe5b906000526020600020906003020160020160006101000a81548163ffffffff021916908363ffffffff1602179055505050565b6000600760009054906101000a900473ffffffffffffffffffffffffffffffffffffffff1673ffffffffffffffffffffffffffffffffffffffff1663e98b7f4d836040518263ffffffff1660e01b8152600401808281526020019150506101406040518083038186803b15801561094957600080fd5b505afa15801561095d573d6000803e3d6000fd5b505050506040513d61014081101561097457600080fd5b810190808051906020019092919080519060200190929190805190602001909291908051906020019092919080519060200190929190805190602001909291908051906020019092919080519060200190929190805190602001909291908051906020019092919050505090919293949596979850909192939495969750909192939495965090919293949550909192939450909192935090919250909150905080915050610a5983826040518060400160405280600581526020017f6b69747479000000000000000000000000000000000000000000000000000000815250611433565b505050565b60048181548110610a6b57fe5b9060005260206000209060030201600091509050806000018054600181600116156101000203166002900480601f016020809104026020016040519081016040528092919081815260200182805460018160011615610100020316600290048015610b175780601f10610aec57610100808354040283529160200191610b17565b820191906000526020600020905b815481529060010190602001808311610afa57829003601f168201915b5050505050908060010154908060020160009054906101000a900463ffffffff16908060020160049054906101000a900463ffffffff16908060020160089054906101000a900461ffff169080600201600a9054906101000a900461ffff16905086565b610b8361100a565b610b8c57600080fd5b6000610b96610fe1565b90508073ffffffffffffffffffffffffffffffffffffffff166108fc479081150290604051600060405180830381858888f19350505050158015610bde573d6000803e3d6000fd5b5050565b606080600660008473ffffffffffffffffffffffffffffffffffffffff1673ffffffffffffffffffffffffffffffffffffffff16815260200190815260200160002054604051908082528060200260200182016040528015610c535781602001602082028038833980820191505090505b509050600080905060008090505b600480549050811015610d04578473ffffffffffffffffffffffffffffffffffffffff166005600083815260200190815260200160002060009054906101000a900473ffffffffffffffffffffffffffffffffffffffff1673ffffffffffffffffffffffffffffffffffffffff161415610cf75780838381518110610ce257fe5b60200260200101818152505081806001019250505b8080600101915050610c61565b508192505050919050565b60056020528060005260406000206000915054906101000a900473ffffffffffffffffffffffffffffffffffffffff1681565b610d4a61100a565b610d5357600080fd5b80600760006101000a81548173ffffffffffffffffffffffffffffffffffffffff021916908373ffffffffffffffffffffffffffffffffffffffff16021790555050565b6014828160048281548110610da857fe5b906000526020600020906003020160020160009054906101000a900463ffffffff1663ffffffff161015610ddb57600080fd5b836005600082815260200190815260200160002060009054906101000a900473ffffffffffffffffffffffffffffffffffffffff1673ffffffffffffffffffffffffffffffffffffffff163373ffffffffffffffffffffffffffffffffffffffff1614610e4757600080fd5b8360048681548110610e5557fe5b9060005260206000209060030201600101819055505050505050565b6000610e7c82611615565b905060648181610e8857fe5b0681039050610e9782826116a3565b5050565b610ea361100a565b610eac57600080fd5b600073ffffffffffffffffffffffffffffffffffffffff166000809054906101000a900473ffffffffffffffffffffffffffffffffffffffff1673ffffffffffffffffffffffffffffffffffffffff167f8be0079c531659141344cd1fd0a4f28419497f9722a3daafe3b4186f6b6457e060405160405180910390a360008060006101000a81548173ffffffffffffffffffffffffffffffffffffffff021916908373ffffffffffffffffffffffffffffffffffffffff160217905550565b6000600660003373ffffffffffffffffffffffffffffffffffffffff1673ffffffffffffffffffffffffffffffffffffffff1681526020019081526020016000205414610fb757600080fd5b6000610fc282611615565b905060648181610fce57fe5b0681039050610fdd82826116a3565b5050565b60008060009054906101000a900473ffffffffffffffffffffffffffffffffffffffff16905090565b60008060009054906101000a900473ffffffffffffffffffffffffffffffffffffffff1673ffffffffffffffffffffffffffffffffffffffff163373ffffffffffffffffffffffffffffffffffffffff1614905090565b600283816004828154811061107257fe5b906000526020600020906003020160020160009054906101000a900463ffffffff1663ffffffff1610156110a557600080fd5b846005600082815260200190815260200160002060009054906101000a900473ffffffffffffffffffffffffffffffffffffffff1673ffffffffffffffffffffffffffffffffffffffff163373ffffffffffffffffffffffffffffffffffffffff161461111157600080fd5b84846004888154811061112057fe5b9060005260206000209060030201600001919061113e929190611b97565b50505050505050565b61114f61100a565b61115857600080fd5b8060088190555050565b816005600082815260200190815260200160002060009054906101000a900473ffffffffffffffffffffffffffffffffffffffff1673ffffffffffffffffffffffffffffffffffffffff163373ffffffffffffffffffffffffffffffffffffffff16146111ce57600080fd5b6000600484815481106111dd57fe5b906000526020600020906003020190506000600484815481106111fc57fe5b9060005260206000209060030201905060006112186064611975565b9050600a54811161134c5761124d60018460020160089054906101000a900461ffff1661ffff16611a0e90919063ffffffff16565b8360020160086101000a81548161ffff021916908361ffff16021790555061129960018460020160009054906101000a900463ffffffff1663ffffffff1661140b90919063ffffffff16565b8360020160006101000a81548163ffffffff021916908363ffffffff1602179055506112e5600183600201600a9054906101000a900461ffff1661ffff16611a0e90919063ffffffff16565b82600201600a6101000a81548161ffff021916908361ffff1602179055506113478683600101546040518060400160405280600681526020017f7a6f6d6269650000000000000000000000000000000000000000000000000000815250611433565b6113e6565b611376600184600201600a9054906101000a900461ffff1661ffff16611a0e90919063ffffffff16565b83600201600a6101000a81548161ffff021916908361ffff1602179055506113be60018360020160089054906101000a900461ffff1661ffff16611a0e90919063ffffffff16565b8260020160086101000a81548161ffff021916908361ffff1602179055506113e583611a32565b5b505050505050565b6113f661100a565b6113ff57600080fd5b61140881611a5c565b50565b60008082840190508363ffffffff168163ffffffff16101561142957fe5b8091505092915050565b826005600082815260200190815260200160002060009054906101000a900473ffffffffffffffffffffffffffffffffffffffff1673ffffffffffffffffffffffffffffffffffffffff163373ffffffffffffffffffffffffffffffffffffffff161461149f57600080fd5b6000600485815481106114ae57fe5b906000526020600020906003020190506114c781611b54565b6114d057600080fd5b60025484816114db57fe5b0693506000600285836001015401816114f057fe5b04905060405160200180807f6b69747479000000000000000000000000000000000000000000000000000000815250600501905060405160208183030381529060405280519060200120846040516020018082805190602001908083835b60208310611571578051825260208201915060208101905060208303925061154e565b6001836020036101000a0380198251168184511680821785525050505050509050019150506040516020818303038152906040528051906020012014156115c5576063606482816115be57fe5b0682030190505b6116046040518060400160405280600681526020017f4e6f4e616d650000000000000000000000000000000000000000000000000000815250826116a3565b61160d82611a32565b505050505050565b600080826040516020018082805190602001908083835b6020831061164f578051825260208201915060208101905060208303925061162c565b6001836020036101000a0380198251168184511680821785525050505050509050019150506040516020818303038152906040528051906020012060001c9050600254818161169a57fe5b06915050919050565b6000600160046040518060c00160405280868152602001858152602001600163ffffffff168152602001600354420163ffffffff168152602001600061ffff168152602001600061ffff16815250908060018154018082558091505090600182039060005260206000209060030201600090919290919091506000820151816000019080519060200190611738929190611c17565b506020820151816001015560408201518160020160006101000a81548163ffffffff021916908363ffffffff16021790555060608201518160020160046101000a81548163ffffffff021916908363ffffffff16021790555060808201518160020160086101000a81548161ffff021916908361ffff16021790555060a082015181600201600a6101000a81548161ffff021916908361ffff1602179055505050039050336005600083815260200190815260200160002060006101000a81548173ffffffffffffffffffffffffffffffffffffffff021916908373ffffffffffffffffffffffffffffffffffffffff1602179055506118816001600660003373ffffffffffffffffffffffffffffffffffffffff1673ffffffffffffffffffffffffffffffffffffffff16815260200190815260200160002054611b7b90919063ffffffff16565b600660003373ffffffffffffffffffffffffffffffffffffffff1673ffffffffffffffffffffffffffffffffffffffff168152602001908152602001600020819055507f88f026aacbbecc90c18411df4b1185fd8d9be2470f1962f192bf84a27d0704b78184846040518084815260200180602001838152602001828103825284818151815260200191508051906020019080838360005b83811015611934578082015181840152602081019050611919565b50505050905090810190601f1680156119615780820380516001836020036101000a031916815260200191505b5094505050505060405180910390a1505050565b600061198d6001600954611b7b90919063ffffffff16565b600981905550814233600954604051602001808481526020018373ffffffffffffffffffffffffffffffffffffffff1673ffffffffffffffffffffffffffffffffffffffff1660601b815260140182815260200193505050506040516020818303038152906040528051906020012060001c81611a0657fe5b069050919050565b60008082840190508361ffff168161ffff161015611a2857fe5b8091505092915050565b60035442018160020160046101000a81548163ffffffff021916908363ffffffff16021790555050565b600073ffffffffffffffffffffffffffffffffffffffff168173ffffffffffffffffffffffffffffffffffffffff161415611a9657600080fd5b8073ffffffffffffffffffffffffffffffffffffffff166000809054906101000a900473ffffffffffffffffffffffffffffffffffffffff1673ffffffffffffffffffffffffffffffffffffffff167f8be0079c531659141344cd1fd0a4f28419497f9722a3daafe3b4186f6b6457e060405160405180910390a3806000806101000a81548173ffffffffffffffffffffffffffffffffffffffff021916908373ffffffffffffffffffffffffffffffffffffffff16021790555050565b6000428260020160049054906101000a900463ffffffff1663ffffffff1611159050919050565b600080828401905083811015611b8d57fe5b8091505092915050565b828054600181600116156101000203166002900490600052602060002090601f016020900481019282601f10611bd857803560ff1916838001178555611c06565b82800160010185558215611c06579182015b82811115611c05578235825591602001919060010190611bea565b5b509050611c139190611c97565b5090565b828054600181600116156101000203166002900490600052602060002090601f016020900481019282601f10611c5857805160ff1916838001178555611c86565b82800160010185558215611c86579182015b82811115611c85578251825591602001919060010190611c6a565b5b509050611c939190611c97565b5090565b611cb991905b80821115611cb5576000816000905550600101611c9d565b5090565b9056fea265627a7a723158202cab835e0a5850def8b5121fb4f2af2800c73805889967b3ab55a574ffd7cf6d64736f6c63430005100032",
  "source": "pragma solidity ^0.5.0;\n\nimport \"./zombiehelper.sol\";\n\ncontract ZombieAttack is ZombieHelper {\n    uint256 randNonce = 0;\n    uint256 attackVictoryProbability = 70;\n\n    function randMod(uint256 _modulus) internal returns (uint256) {\n        randNonce = randNonce.add(1);\n        return\n            uint256(keccak256(abi.encodePacked(now, msg.sender, randNonce))) %\n            _modulus;\n    }\n\n    function attack(uint256 _zombieId, uint256 _targetId)\n        external\n        onlyOwnerOf(_zombieId)\n    {\n        Zombie storage myZombie = zombies[_zombieId];\n        Zombie storage enemyZombie = zombies[_targetId];\n        uint256 rand = randMod(100);\n        if (rand <= attackVictoryProbability) {\n            myZombie.winCount = myZombie.winCount.add(1);\n            myZombie.level = myZombie.level.add(1);\n            enemyZombie.lossCount = enemyZombie.lossCount.add(1);\n            feedAndMultiply(_zombieId, enemyZombie.dna, \"zombie\");\n        } else {\n            myZombie.lossCount = myZombie.lossCount.add(1);\n            enemyZombie.winCount = enemyZombie.winCount.add(1);\n            _triggerCooldown(myZombie);\n        }\n    }\n}\n",
  "sourcePath": "/home/mahdad/Projects/crypto/zombies-game-smart-contract/contracts/zombieattack.sol",
  "compiler": {
    "name": "solc",
    "version": "0.5.16+commit.9c3226ce.Emscripten.clang"
  },
  "schemaVersion": "3.4.1",
  "updatedAt": "2021-11-07T16:07:31.936Z",
  "devdoc": {
    "methods": {
      "isOwner()": {
        "return": "true if `msg.sender` is the owner of the contract."
      },
      "owner()": {
        "return": "the address of the owner."
      },
      "renounceOwnership()": {
        "details": "Allows the current owner to relinquish control of the contract."
      },
      "transferOwnership(address)": {
        "details": "Allows the current owner to transfer control of the contract to a newOwner.",
        "params": {
          "newOwner": "The address to transfer ownership to."
        }
      }
    }
  },
  "userdoc": {
    "methods": {
      "renounceOwnership()": {
        "notice": "Renouncing to ownership will leave the contract without an owner. It will not be possible to call the functions with the `onlyOwner` modifier anymore."
      }
    }
  }
}