{
  "contractName": "ZombieHelper",
  "abi": [
    {
      "anonymous": false,
      "inputs": [
        {
          "indexed": false,
          "internalType": "uint256",
          "name": "zombieId",
          "type": "uint256"
        },
        {
          "indexed": false,
          "internalType": "string",
          "name": "name",
          "type": "string"
        },
        {
          "indexed": false,
          "internalType": "uint256",
          "name": "dna",
          "type": "uint256"
        }
      ],
      "name": "NewZombie",
      "type": "event"
    },
    {
      "anonymous": false,
      "inputs": [
        {
          "indexed": true,
          "internalType": "address",
          "name": "previousOwner",
          "type": "address"
        },
        {
          "indexed": true,
          "internalType": "address",
          "name": "newOwner",
          "type": "address"
        }
      ],
      "name": "OwnershipTransferred",
      "type": "event"
    },
    {
      "constant": false,
      "inputs": [
        {
          "internalType": "string",
          "name": "_name",
          "type": "string"
        }
      ],
      "name": "createRandomZombie",
      "outputs": [],
      "payable": false,
      "stateMutability": "nonpayable",
      "type": "function"
    },
    {
      "constant": false,
      "inputs": [
        {
          "internalType": "string",
          "name": "_name",
          "type": "string"
        }
      ],
      "name": "createRandomZombieFree",
      "outputs": [],
      "payable": false,
      "stateMutability": "nonpayable",
      "type": "function"
    },
    {
      "constant": false,
      "inputs": [
        {
          "internalType": "uint256",
          "name": "_zombieId",
          "type": "uint256"
        },
        {
          "internalType": "uint256",
          "name": "_kittyId",
          "type": "uint256"
        }
      ],
      "name": "feedOnKitty",
      "outputs": [],
      "payable": false,
      "stateMutability": "nonpayable",
      "type": "function"
    },
    {
      "constant": true,
      "inputs": [],
      "name": "isOwner",
      "outputs": [
        {
          "internalType": "bool",
          "name": "",
          "type": "bool"
        }
      ],
      "payable": false,
      "stateMutability": "view",
      "type": "function"
    },
    {
      "constant": true,
      "inputs": [],
      "name": "owner",
      "outputs": [
        {
          "internalType": "address payable",
          "name": "",
          "type": "address"
        }
      ],
      "payable": false,
      "stateMutability": "view",
      "type": "function"
    },
    {
      "constant": false,
      "inputs": [],
      "name": "renounceOwnership",
      "outputs": [],
      "payable": false,
      "stateMutability": "nonpayable",
      "type": "function"
    },
    {
      "constant": false,
      "inputs": [
        {
          "internalType": "address",
          "name": "_address",
          "type": "address"
        }
      ],
      "name": "setKittyContractAddress",
      "outputs": [],
      "payable": false,
      "stateMutability": "nonpayable",
      "type": "function"
    },
    {
      "constant": false,
      "inputs": [
        {
          "internalType": "address payable",
          "name": "newOwner",
          "type": "address"
        }
      ],
      "name": "transferOwnership",
      "outputs": [],
      "payable": false,
      "stateMutability": "nonpayable",
      "type": "function"
    },
    {
      "constant": true,
      "inputs": [
        {
          "internalType": "uint256",
          "name": "",
          "type": "uint256"
        }
      ],
      "name": "zombieToOwner",
      "outputs": [
        {
          "internalType": "address",
          "name": "",
          "type": "address"
        }
      ],
      "payable": false,
      "stateMutability": "view",
      "type": "function"
    },
    {
      "constant": true,
      "inputs": [
        {
          "internalType": "uint256",
          "name": "",
          "type": "uint256"
        }
      ],
      "name": "zombies",
      "outputs": [
        {
          "internalType": "string",
          "name": "name",
          "type": "string"
        },
        {
          "internalType": "uint256",
          "name": "dna",
          "type": "uint256"
        },
        {
          "internalType": "uint32",
          "name": "level",
          "type": "uint32"
        },
        {
          "internalType": "uint32",
          "name": "readyTime",
          "type": "uint32"
        },
        {
          "internalType": "uint16",
          "name": "winCount",
          "type": "uint16"
        },
        {
          "internalType": "uint16",
          "name": "lossCount",
          "type": "uint16"
        }
      ],
      "payable": false,
      "stateMutability": "view",
      "type": "function"
    },
    {
      "constant": false,
      "inputs": [],
      "name": "withdraw",
      "outputs": [],
      "payable": false,
      "stateMutability": "nonpayable",
      "type": "function"
    },
    {
      "constant": false,
      "inputs": [
        {
          "internalType": "uint256",
          "name": "_fee",
          "type": "uint256"
        }
      ],
      "name": "setLevelUpFee",
      "outputs": [],
      "payable": false,
      "stateMutability": "nonpayable",
      "type": "function"
    },
    {
      "constant": false,
      "inputs": [
        {
          "internalType": "uint256",
          "name": "_zombieId",
          "type": "uint256"
        }
      ],
      "name": "levelUp",
      "outputs": [],
      "payable": true,
      "stateMutability": "payable",
      "type": "function"
    },
    {
      "constant": false,
      "inputs": [
        {
          "internalType": "uint256",
          "name": "_zombieId",
          "type": "uint256"
        },
        {
          "internalType": "string",
          "name": "_newName",
          "type": "string"
        }
      ],
      "name": "changeName",
      "outputs": [],
      "payable": false,
      "stateMutability": "nonpayable",
      "type": "function"
    },
    {
      "constant": false,
      "inputs": [
        {
          "internalType": "uint256",
          "name": "_zombieId",
          "type": "uint256"
        },
        {
          "internalType": "uint256",
          "name": "_newDna",
          "type": "uint256"
        }
      ],
      "name": "changeDna",
      "outputs": [],
      "payable": false,
      "stateMutability": "nonpayable",
      "type": "function"
    },
    {
      "constant": true,
      "inputs": [
        {
          "internalType": "address",
          "name": "_owner",
          "type": "address"
        }
      ],
      "name": "getZombiesByOwner",
      "outputs": [
        {
          "internalType": "uint256[]",
          "name": "",
          "type": "uint256[]"
        }
      ],
      "payable": false,
      "stateMutability": "view",
      "type": "function"
    }
  ],
  "bytecode": "0x60806040526010600155600154600a0a600255603c60035566038d7ea4c68000600855336000806101000a81548173ffffffffffffffffffffffffffffffffffffffff021916908373ffffffffffffffffffffffffffffffffffffffff1602179055506000809054906101000a900473ffffffffffffffffffffffffffffffffffffffff1673ffffffffffffffffffffffffffffffffffffffff16600073ffffffffffffffffffffffffffffffffffffffff167f8be0079c531659141344cd1fd0a4f28419497f9722a3daafe3b4186f6b6457e060405160405180910390a36118eb806100ed6000396000f3fe6080604052600436106100f35760003560e01c806367afd96d1161008a5780638f32d59b116100595780638f32d59b14610636578063c39cbef114610665578063ccf670f8146106f5578063f2fde38b14610730576100f3565b806367afd96d14610438578063715018a6146105005780637bff0a01146105175780638da5cb5b146105df576100f3565b80634412e104116100c65780634412e10414610281578063528b7b8f146103275780635f4623f1146103a25780635faf2880146103f3576100f3565b80630ce90ec2146100f857806317a7f4cc146101265780632052465e1461016b5780633ccfd60b1461026a575b600080fd5b6101246004803603602081101561010e57600080fd5b8101908080359060200190929190505050610781565b005b34801561013257600080fd5b506101696004803603604081101561014957600080fd5b810190808035906020019092919080359060200190929190505050610816565b005b34801561017757600080fd5b506101a46004803603602081101561018e57600080fd5b81019080803590602001909291905050506109a1565b60405180806020018781526020018663ffffffff1663ffffffff1681526020018563ffffffff1663ffffffff1681526020018461ffff1661ffff1681526020018361ffff1661ffff168152602001828103825288818151815260200191508051906020019080838360005b8381101561022a57808201518184015260208101905061020f565b50505050905090810190601f1680156102575780820380516001836020036101000a031916815260200191505b5097505050505050505060405180910390f35b34801561027657600080fd5b5061027f610abe565b005b34801561028d57600080fd5b506102d0600480360360208110156102a457600080fd5b81019080803573ffffffffffffffffffffffffffffffffffffffff169060200190929190505050610b25565b6040518080602001828103825283818151815260200191508051906020019060200280838360005b838110156103135780820151818401526020810190506102f8565b505050509050019250505060405180910390f35b34801561033357600080fd5b506103606004803603602081101561034a57600080fd5b8101908080359060200190929190505050610c52565b604051808273ffffffffffffffffffffffffffffffffffffffff1673ffffffffffffffffffffffffffffffffffffffff16815260200191505060405180910390f35b3480156103ae57600080fd5b506103f1600480360360208110156103c557600080fd5b81019080803573ffffffffffffffffffffffffffffffffffffffff169060200190929190505050610c85565b005b3480156103ff57600080fd5b506104366004803603604081101561041657600080fd5b810190808035906020019092919080359060200190929190505050610cda565b005b34801561044457600080fd5b506104fe6004803603602081101561045b57600080fd5b810190808035906020019064010000000081111561047857600080fd5b82018360208201111561048a57600080fd5b803590602001918460018302840111640100000000831117156104ac57600080fd5b91908080601f016020809104026020016040519081016040528093929190818152602001838380828437600081840152601f19601f820116905080830192505050505050509192919290505050610db4565b005b34801561050c57600080fd5b50610515610dde565b005b34801561052357600080fd5b506105dd6004803603602081101561053a57600080fd5b810190808035906020019064010000000081111561055757600080fd5b82018360208201111561056957600080fd5b8035906020019184600183028401116401000000008311171561058b57600080fd5b91908080601f016020809104026020016040519081016040528093929190818152602001838380828437600081840152601f19601f820116905080830192505050505050509192919290505050610eae565b005b3480156105eb57600080fd5b506105f4610f24565b604051808273ffffffffffffffffffffffffffffffffffffffff1673ffffffffffffffffffffffffffffffffffffffff16815260200191505060405180910390f35b34801561064257600080fd5b5061064b610f4d565b604051808215151515815260200191505060405180910390f35b34801561067157600080fd5b506106f36004803603604081101561068857600080fd5b8101908080359060200190929190803590602001906401000000008111156106af57600080fd5b8201836020820111156106c157600080fd5b803590602001918460018302840111640100000000831117156106e357600080fd5b9091929391929390505050610fa4565b005b34801561070157600080fd5b5061072e6004803603602081101561071857600080fd5b810190808035906020019092919050505061108a565b005b34801561073c57600080fd5b5061077f6004803603602081101561075357600080fd5b81019080803573ffffffffffffffffffffffffffffffffffffffff1690602001909291905050506110a5565b005b600854341461078f57600080fd5b6107d76001600483815481106107a157fe5b906000526020600020906003020160020160009054906101000a900463ffffffff1663ffffffff166110c290919063ffffffff16565b600482815481106107e457fe5b906000526020600020906003020160020160006101000a81548163ffffffff021916908363ffffffff16021790555050565b6000600760009054906101000a900473ffffffffffffffffffffffffffffffffffffffff1673ffffffffffffffffffffffffffffffffffffffff1663e98b7f4d836040518263ffffffff1660e01b8152600401808281526020019150506101406040518083038186803b15801561088c57600080fd5b505afa1580156108a0573d6000803e3d6000fd5b505050506040513d6101408110156108b757600080fd5b81019080805190602001909291908051906020019092919080519060200190929190805190602001909291908051906020019092919080519060200190929190805190602001909291908051906020019092919080519060200190929190805190602001909291905050509091929394959697985090919293949596975090919293949596509091929394955090919293945090919293509091925090915090508091505061099c83826040518060400160405280600581526020017f6b697474790000000000000000000000000000000000000000000000000000008152506110ea565b505050565b600481815481106109ae57fe5b9060005260206000209060030201600091509050806000018054600181600116156101000203166002900480601f016020809104026020016040519081016040528092919081815260200182805460018160011615610100020316600290048015610a5a5780601f10610a2f57610100808354040283529160200191610a5a565b820191906000526020600020905b815481529060010190602001808311610a3d57829003601f168201915b5050505050908060010154908060020160009054906101000a900463ffffffff16908060020160049054906101000a900463ffffffff16908060020160089054906101000a900461ffff169080600201600a9054906101000a900461ffff16905086565b610ac6610f4d565b610acf57600080fd5b6000610ad9610f24565b90508073ffffffffffffffffffffffffffffffffffffffff166108fc479081150290604051600060405180830381858888f19350505050158015610b21573d6000803e3d6000fd5b5050565b606080600660008473ffffffffffffffffffffffffffffffffffffffff1673ffffffffffffffffffffffffffffffffffffffff16815260200190815260200160002054604051908082528060200260200182016040528015610b965781602001602082028038833980820191505090505b509050600080905060008090505b600480549050811015610c47578473ffffffffffffffffffffffffffffffffffffffff166005600083815260200190815260200160002060009054906101000a900473ffffffffffffffffffffffffffffffffffffffff1673ffffffffffffffffffffffffffffffffffffffff161415610c3a5780838381518110610c2557fe5b60200260200101818152505081806001019250505b8080600101915050610ba4565b508192505050919050565b60056020528060005260406000206000915054906101000a900473ffffffffffffffffffffffffffffffffffffffff1681565b610c8d610f4d565b610c9657600080fd5b80600760006101000a81548173ffffffffffffffffffffffffffffffffffffffff021916908373ffffffffffffffffffffffffffffffffffffffff16021790555050565b6014828160048281548110610ceb57fe5b906000526020600020906003020160020160009054906101000a900463ffffffff1663ffffffff161015610d1e57600080fd5b836005600082815260200190815260200160002060009054906101000a900473ffffffffffffffffffffffffffffffffffffffff1673ffffffffffffffffffffffffffffffffffffffff163373ffffffffffffffffffffffffffffffffffffffff1614610d8a57600080fd5b8360048681548110610d9857fe5b9060005260206000209060030201600101819055505050505050565b6000610dbf826112cc565b905060648181610dcb57fe5b0681039050610dda828261135a565b5050565b610de6610f4d565b610def57600080fd5b600073ffffffffffffffffffffffffffffffffffffffff166000809054906101000a900473ffffffffffffffffffffffffffffffffffffffff1673ffffffffffffffffffffffffffffffffffffffff167f8be0079c531659141344cd1fd0a4f28419497f9722a3daafe3b4186f6b6457e060405160405180910390a360008060006101000a81548173ffffffffffffffffffffffffffffffffffffffff021916908373ffffffffffffffffffffffffffffffffffffffff160217905550565b6000600660003373ffffffffffffffffffffffffffffffffffffffff1673ffffffffffffffffffffffffffffffffffffffff1681526020019081526020016000205414610efa57600080fd5b6000610f05826112cc565b905060648181610f1157fe5b0681039050610f20828261135a565b5050565b60008060009054906101000a900473ffffffffffffffffffffffffffffffffffffffff16905090565b60008060009054906101000a900473ffffffffffffffffffffffffffffffffffffffff1673ffffffffffffffffffffffffffffffffffffffff163373ffffffffffffffffffffffffffffffffffffffff1614905090565b6002838160048281548110610fb557fe5b906000526020600020906003020160020160009054906101000a900463ffffffff1663ffffffff161015610fe857600080fd5b846005600082815260200190815260200160002060009054906101000a900473ffffffffffffffffffffffffffffffffffffffff1673ffffffffffffffffffffffffffffffffffffffff163373ffffffffffffffffffffffffffffffffffffffff161461105457600080fd5b84846004888154811061106357fe5b90600052602060002090600302016000019190611081929190611791565b50505050505050565b611092610f4d565b61109b57600080fd5b8060088190555050565b6110ad610f4d565b6110b657600080fd5b6110bf8161162c565b50565b60008082840190508363ffffffff168163ffffffff1610156110e057fe5b8091505092915050565b826005600082815260200190815260200160002060009054906101000a900473ffffffffffffffffffffffffffffffffffffffff1673ffffffffffffffffffffffffffffffffffffffff163373ffffffffffffffffffffffffffffffffffffffff161461115657600080fd5b60006004858154811061116557fe5b9060005260206000209060030201905061117e81611724565b61118757600080fd5b600254848161119257fe5b0693506000600285836001015401816111a757fe5b04905060405160200180807f6b69747479000000000000000000000000000000000000000000000000000000815250600501905060405160208183030381529060405280519060200120846040516020018082805190602001908083835b602083106112285780518252602082019150602081019050602083039250611205565b6001836020036101000a03801982511681845116808217855250505050505090500191505060405160208183030381529060405280519060200120141561127c5760636064828161127557fe5b0682030190505b6112bb6040518060400160405280600681526020017f4e6f4e616d6500000000000000000000000000000000000000000000000000008152508261135a565b6112c48261174b565b505050505050565b600080826040516020018082805190602001908083835b6020831061130657805182526020820191506020810190506020830392506112e3565b6001836020036101000a0380198251168184511680821785525050505050509050019150506040516020818303038152906040528051906020012060001c9050600254818161135157fe5b06915050919050565b6000600160046040518060c00160405280868152602001858152602001600163ffffffff168152602001600354420163ffffffff168152602001600061ffff168152602001600061ffff168152509080600181540180825580915050906001820390600052602060002090600302016000909192909190915060008201518160000190805190602001906113ef929190611811565b506020820151816001015560408201518160020160006101000a81548163ffffffff021916908363ffffffff16021790555060608201518160020160046101000a81548163ffffffff021916908363ffffffff16021790555060808201518160020160086101000a81548161ffff021916908361ffff16021790555060a082015181600201600a6101000a81548161ffff021916908361ffff1602179055505050039050336005600083815260200190815260200160002060006101000a81548173ffffffffffffffffffffffffffffffffffffffff021916908373ffffffffffffffffffffffffffffffffffffffff1602179055506115386001600660003373ffffffffffffffffffffffffffffffffffffffff1673ffffffffffffffffffffffffffffffffffffffff1681526020019081526020016000205461177590919063ffffffff16565b600660003373ffffffffffffffffffffffffffffffffffffffff1673ffffffffffffffffffffffffffffffffffffffff168152602001908152602001600020819055507f88f026aacbbecc90c18411df4b1185fd8d9be2470f1962f192bf84a27d0704b78184846040518084815260200180602001838152602001828103825284818151815260200191508051906020019080838360005b838110156115eb5780820151818401526020810190506115d0565b50505050905090810190601f1680156116185780820380516001836020036101000a031916815260200191505b5094505050505060405180910390a1505050565b600073ffffffffffffffffffffffffffffffffffffffff168173ffffffffffffffffffffffffffffffffffffffff16141561166657600080fd5b8073ffffffffffffffffffffffffffffffffffffffff166000809054906101000a900473ffffffffffffffffffffffffffffffffffffffff1673ffffffffffffffffffffffffffffffffffffffff167f8be0079c531659141344cd1fd0a4f28419497f9722a3daafe3b4186f6b6457e060405160405180910390a3806000806101000a81548173ffffffffffffffffffffffffffffffffffffffff021916908373ffffffffffffffffffffffffffffffffffffffff16021790555050565b6000428260020160049054906101000a900463ffffffff1663ffffffff1611159050919050565b60035442018160020160046101000a81548163ffffffff021916908363ffffffff16021790555050565b60008082840190508381101561178757fe5b8091505092915050565b828054600181600116156101000203166002900490600052602060002090601f016020900481019282601f106117d257803560ff1916838001178555611800565b82800160010185558215611800579182015b828111156117ff5782358255916020019190600101906117e4565b5b50905061180d9190611891565b5090565b828054600181600116156101000203166002900490600052602060002090601f016020900481019282601f1061185257805160ff1916838001178555611880565b82800160010185558215611880579182015b8281111561187f578251825591602001919060010190611864565b5b50905061188d9190611891565b5090565b6118b391905b808211156118af576000816000905550600101611897565b5090565b9056fea265627a7a72315820c4fb37f10bf4a2acca5228aa3edcb775fc7b6ad4ba64cd2cb979c554444f31b864736f6c63430005100032",
  "source": "pragma solidity ^0.5.0;\n\nimport \"./zombiefeeding.sol\";\n\ncontract ZombieHelper is ZombieFeeding {\n    uint256 levelUpFee = 0.001 ether;\n\n    modifier aboveLevel(uint256 _level, uint256 _zombieId) {\n        require(zombies[_zombieId].level >= _level);\n        _;\n    }\n\n    function withdraw() external onlyOwner {\n        address payable _owner = owner();\n        _owner.transfer(address(this).balance);\n    }\n\n    function setLevelUpFee(uint256 _fee) external onlyOwner {\n        levelUpFee = _fee;\n    }\n\n    function levelUp(uint256 _zombieId) external payable {\n        require(msg.value == levelUpFee);\n        zombies[_zombieId].level = zombies[_zombieId].level.add(1);\n    }\n\n    function changeName(uint256 _zombieId, string calldata _newName)\n        external\n        aboveLevel(2, _zombieId)\n        onlyOwnerOf(_zombieId)\n    {\n        zombies[_zombieId].name = _newName;\n    }\n\n    function changeDna(uint256 _zombieId, uint256 _newDna)\n        external\n        aboveLevel(20, _zombieId)\n        onlyOwnerOf(_zombieId)\n    {\n        zombies[_zombieId].dna = _newDna;\n    }\n\n    function getZombiesByOwner(address _owner)\n        external\n        view\n        returns (uint256[] memory)\n    {\n        uint256[] memory result = new uint256[](ownerZombieCount[_owner]);\n        uint256 counter = 0;\n        for (uint256 i = 0; i < zombies.length; i++) {\n            if (zombieToOwner[i] == _owner) {\n                result[counter] = i;\n                counter++;\n            }\n        }\n        return result;\n    }\n}\n",
  "sourcePath": "/home/mahdad/Projects/crypto/zombies-game-smart-contract/contracts/zombiehelper.sol",
  "compiler": {
    "name": "solc",
    "version": "0.5.16+commit.9c3226ce.Emscripten.clang"
  },
  "schemaVersion": "3.4.1",
  "updatedAt": "2021-07-11T16:42:35.035Z",
  "devdoc": {
    "methods": {
      "isOwner()": {
        "return": "true if `msg.sender` is the owner of the contract."
      },
      "owner()": {
        "return": "the address of the owner."
      },
      "renounceOwnership()": {
        "details": "Allows the current owner to relinquish control of the contract."
      },
      "transferOwnership(address)": {
        "details": "Allows the current owner to transfer control of the contract to a newOwner.",
        "params": {
          "newOwner": "The address to transfer ownership to."
        }
      }
    }
  },
  "userdoc": {
    "methods": {
      "renounceOwnership()": {
        "notice": "Renouncing to ownership will leave the contract without an owner. It will not be possible to call the functions with the `onlyOwner` modifier anymore."
      }
    }
  }
}